{"project/contracts/Certificate.sol":{"Certificate":{"abi":[{"anonymous":false,"inputs":[{"indexed":true,"internalType":"uint256","name":"certId","type":"uint256"},{"indexed":true,"internalType":"address","name":"issuer","type":"address"},{"indexed":true,"internalType":"address","name":"recipient","type":"address"},{"indexed":false,"internalType":"string","name":"ipfsHash","type":"string"},{"indexed":false,"internalType":"uint256","name":"issuedAt","type":"uint256"}],"name":"CertificateIssued","type":"event"},{"inputs":[],"name":"certCount","outputs":[{"internalType":"uint256","name":"","type":"uint256"}],"stateMutability":"view","type":"function"},{"inputs":[{"internalType":"uint256","name":"","type":"uint256"}],"name":"certificates","outputs":[{"internalType":"address","name":"issuer","type":"address"},{"internalType":"address","name":"recipient","type":"address"},{"internalType":"string","name":"ipfsHash","type":"string"},{"internalType":"uint256","name":"issuedAt","type":"uint256"}],"stateMutability":"view","type":"function"},{"inputs":[{"internalType":"address","name":"recipient","type":"address"},{"internalType":"string","name":"ipfsHash","type":"string"}],"name":"issueCertificate","outputs":[{"internalType":"uint256","name":"","type":"uint256"}],"stateMutability":"nonpayable","type":"function"}],"evm":{"bytecode":{"linkReferences":{},"object":"6080604052348015600e575f5ffd5b50610b948061001c5f395ff3fe608060405234801561000f575f5ffd5b506004361061003f575f3560e01c8063663b3e2214610043578063bb721aab14610076578063d4e207a2146100a6575b5f5ffd5b61005d60048036038101906100589190610483565b6100c4565b60405161006d949392919061056c565b60405180910390f35b610090600480360381019061008b9190610641565b6101b4565b60405161009d919061069e565b60405180910390f35b6100ae610443565b6040516100bb919061069e565b60405180910390f35b6001602052805f5260405f205f91509050805f015f9054906101000a900473ffffffffffffffffffffffffffffffffffffffff1690806001015f9054906101000a900473ffffffffffffffffffffffffffffffffffffffff169080600201805461012d906106e4565b80601f0160208091040260200160405190810160405280929190818152602001828054610159906106e4565b80156101a45780601f1061017b576101008083540402835291602001916101a4565b820191905f5260205f20905b81548152906001019060200180831161018757829003601f168201915b5050505050908060030154905084565b5f5f73ffffffffffffffffffffffffffffffffffffffff168473ffffffffffffffffffffffffffffffffffffffff1603610223576040517f08c379a000000000000000000000000000000000000000000000000000000000815260040161021a9061075e565b60405180910390fd5b5f8383905011610268576040517f08c379a000000000000000000000000000000000000000000000000000000000815260040161025f906107c6565b60405180910390fd5b5f5f81548092919061027990610811565b919050555060405180608001604052803373ffffffffffffffffffffffffffffffffffffffff1681526020018573ffffffffffffffffffffffffffffffffffffffff16815260200184848080601f0160208091040260200160405190810160405280939291908181526020018383808284375f81840152601f19601f8201169050808301925050505050505081526020014281525060015f5f5481526020019081526020015f205f820151815f015f6101000a81548173ffffffffffffffffffffffffffffffffffffffff021916908373ffffffffffffffffffffffffffffffffffffffff1602179055506020820151816001015f6101000a81548173ffffffffffffffffffffffffffffffffffffffff021916908373ffffffffffffffffffffffffffffffffffffffff16021790555060408201518160020190816103bf9190610a25565b50606082015181600301559050508373ffffffffffffffffffffffffffffffffffffffff163373ffffffffffffffffffffffffffffffffffffffff165f547ff677e82fac9d852bc5fc4e5f1c53e0d88e4c55767af3a60dcb0e1accb716ea6b86864260405161043093929190610b2e565b60405180910390a45f5490509392505050565b5f5481565b5f5ffd5b5f5ffd5b5f819050919050565b61046281610450565b811461046c575f5ffd5b50565b5f8135905061047d81610459565b92915050565b5f6020828403121561049857610497610448565b5b5f6104a58482850161046f565b91505092915050565b5f73ffffffffffffffffffffffffffffffffffffffff82169050919050565b5f6104d7826104ae565b9050919050565b6104e7816104cd565b82525050565b5f81519050919050565b5f82825260208201905092915050565b8281835e5f83830152505050565b5f601f19601f8301169050919050565b5f61052f826104ed565b61053981856104f7565b9350610549818560208601610507565b61055281610515565b840191505092915050565b61056681610450565b82525050565b5f60808201905061057f5f8301876104de565b61058c60208301866104de565b818103604083015261059e8185610525565b90506105ad606083018461055d565b95945050505050565b6105bf816104cd565b81146105c9575f5ffd5b50565b5f813590506105da816105b6565b92915050565b5f5ffd5b5f5ffd5b5f5ffd5b5f5f83601f840112610601576106006105e0565b5b8235905067ffffffffffffffff81111561061e5761061d6105e4565b5b60208301915083600182028301111561063a576106396105e8565b5b9250929050565b5f5f5f6040848603121561065857610657610448565b5b5f610665868287016105cc565b935050602084013567ffffffffffffffff8111156106865761068561044c565b5b610692868287016105ec565b92509250509250925092565b5f6020820190506106b15f83018461055d565b92915050565b7f4e487b71000000000000000000000000000000000000000000000000000000005f52602260045260245ffd5b5f60028204905060018216806106fb57607f821691505b60208210810361070e5761070d6106b7565b5b50919050565b7f496e76616c696420726563697069656e742061646472657373000000000000005f82015250565b5f6107486019836104f7565b915061075382610714565b602082019050919050565b5f6020820190508181035f8301526107758161073c565b9050919050565b7f49504653206861736820726571756972656400000000000000000000000000005f82015250565b5f6107b06012836104f7565b91506107bb8261077c565b602082019050919050565b5f6020820190508181035f8301526107dd816107a4565b9050919050565b7f4e487b71000000000000000000000000000000000000000000000000000000005f52601160045260245ffd5b5f61081b82610450565b91507fffffffffffffffffffffffffffffffffffffffffffffffffffffffffffffffff820361084d5761084c6107e4565b5b600182019050919050565b7f4e487b71000000000000000000000000000000000000000000000000000000005f52604160045260245ffd5b5f819050815f5260205f209050919050565b5f6020601f8301049050919050565b5f82821b905092915050565b5f600883026108e17fffffffffffffffffffffffffffffffffffffffffffffffffffffffffffffffff826108a6565b6108eb86836108a6565b95508019841693508086168417925050509392505050565b5f819050919050565b5f61092661092161091c84610450565b610903565b610450565b9050919050565b5f819050919050565b61093f8361090c565b61095361094b8261092d565b8484546108b2565b825550505050565b5f5f905090565b61096a61095b565b610975818484610936565b505050565b5b818110156109985761098d5f82610962565b60018101905061097b565b5050565b601f8211156109dd576109ae81610885565b6109b784610897565b810160208510156109c6578190505b6109da6109d285610897565b83018261097a565b50505b505050565b5f82821c905092915050565b5f6109fd5f19846008026109e2565b1980831691505092915050565b5f610a1583836109ee565b9150826002028217905092915050565b610a2e826104ed565b67ffffffffffffffff811115610a4757610a46610858565b5b610a5182546106e4565b610a5c82828561099c565b5f60209050601f831160018114610a8d575f8415610a7b578287015190505b610a858582610a0a565b865550610aec565b601f198416610a9b86610885565b5f5b82811015610ac257848901518255600182019150602085019450602081019050610a9d565b86831015610adf5784890151610adb601f8916826109ee565b8355505b6001600288020188555050505b505050505050565b828183375f83830152505050565b5f610b0d83856104f7565b9350610b1a838584610af4565b610b2383610515565b840190509392505050565b5f6040820190508181035f830152610b47818587610b02565b9050610b56602083018461055d565b94935050505056fea26469706673582212209206019a7fad98f8b1bbbc3fa6dbf93ee4ccf36ea96635527fa1f1ae9a63009164736f6c634300081c0033","opcodes":"PUSH1 0x80 PUSH1 0x40 MSTORE CALLVALUE DUP1 ISZERO PUSH1 0xE JUMPI PUSH0 PUSH0 REVERT JUMPDEST POP PUSH2 0xB94 DUP1 PUSH2 0x1C PUSH0 CODECOPY PUSH0 RETURN INVALID PUSH1 0x80 PUSH1 0x40 MSTORE CALLVALUE DUP1 ISZERO PUSH2 0xF JUMPI PUSH0 PUSH0 REVERT JUMPDEST POP PUSH1 0x4 CALLDATASIZE LT PUSH2 0x3F JUMPI PUSH0 CALLDATALOAD PUSH1 0xE0 SHR DUP1 PUSH4 0x663B3E22 EQ PUSH2 0x43 JUMPI DUP1 PUSH4 0xBB721AAB EQ PUSH2 0x76 JUMPI DUP1 PUSH4 0xD4E207A2 EQ PUSH2 0xA6 JUMPI JUMPDEST PUSH0 PUSH0 REVERT JUMPDEST PUSH2 0x5D PUSH1 0x4 DUP1 CALLDATASIZE SUB DUP2 ADD SWAP1 PUSH2 0x58 SWAP2 SWAP1 PUSH2 0x483 JUMP JUMPDEST PUSH2 0xC4 JUMP JUMPDEST PUSH1 0x40 MLOAD PUSH2 0x6D SWAP5 SWAP4 SWAP3 SWAP2 SWAP1 PUSH2 0x56C JUMP JUMPDEST PUSH1 0x40 MLOAD DUP1 SWAP2 SUB SWAP1 RETURN JUMPDEST PUSH2 0x90 PUSH1 0x4 DUP1 CALLDATASIZE SUB DUP2 ADD SWAP1 PUSH2 0x8B SWAP2 SWAP1 PUSH2 0x641 JUMP JUMPDEST PUSH2 0x1B4 JUMP JUMPDEST PUSH1 0x40 MLOAD PUSH2 0x9D SWAP2 SWAP1 PUSH2 0x69E JUMP JUMPDEST PUSH1 0x40 MLOAD DUP1 SWAP2 SUB SWAP1 RETURN JUMPDEST PUSH2 0xAE PUSH2 0x443 JUMP JUMPDEST PUSH1 0x40 MLOAD PUSH2 0xBB SWAP2 SWAP1 PUSH2 0x69E JUMP JUMPDEST PUSH1 0x40 MLOAD DUP1 SWAP2 SUB SWAP1 RETURN JUMPDEST PUSH1 0x1 PUSH1 0x20 MSTORE DUP1 PUSH0 MSTORE PUSH1 0x40 PUSH0 KECCAK256 PUSH0 SWAP2 POP SWAP1 POP DUP1 PUSH0 ADD PUSH0 SWAP1 SLOAD SWAP1 PUSH2 0x100 EXP SWAP1 DIV PUSH20 0xFFFFFFFFFFFFFFFFFFFFFFFFFFFFFFFFFFFFFFFF AND SWAP1 DUP1 PUSH1 0x1 ADD PUSH0 SWAP1 SLOAD SWAP1 PUSH2 0x100 EXP SWAP1 DIV PUSH20 0xFFFFFFFFFFFFFFFFFFFFFFFFFFFFFFFFFFFFFFFF AND SWAP1 DUP1 PUSH1 0x2 ADD DUP1 SLOAD PUSH2 0x12D SWAP1 PUSH2 0x6E4 JUMP JUMPDEST DUP1 PUSH1 0x1F ADD PUSH1 0x20 DUP1 SWAP2 DIV MUL PUSH1 0x20 ADD PUSH1 0x40 MLOAD SWAP1 DUP2 ADD PUSH1 0x40 MSTORE DUP1 SWAP3 SWAP2 SWAP1 DUP2 DUP2 MSTORE PUSH1 0x20 ADD DUP3 DUP1 SLOAD PUSH2 0x159 SWAP1 PUSH2 0x6E4 JUMP JUMPDEST DUP1 ISZERO PUSH2 0x1A4 JUMPI DUP1 PUSH1 0x1F LT PUSH2 0x17B JUMPI PUSH2 0x100 DUP1 DUP4 SLOAD DIV MUL DUP4 MSTORE SWAP2 PUSH1 0x20 ADD SWAP2 PUSH2 0x1A4 JUMP JUMPDEST DUP3 ADD SWAP2 SWAP1 PUSH0 MSTORE PUSH1 0x20 PUSH0 KECCAK256 SWAP1 JUMPDEST DUP2 SLOAD DUP2 MSTORE SWAP1 PUSH1 0x1 ADD SWAP1 PUSH1 0x20 ADD DUP1 DUP4 GT PUSH2 0x187 JUMPI DUP3 SWAP1 SUB PUSH1 0x1F AND DUP3 ADD SWAP2 JUMPDEST POP POP POP POP POP SWAP1 DUP1 PUSH1 0x3 ADD SLOAD SWAP1 POP DUP5 JUMP JUMPDEST PUSH0 PUSH0 PUSH20 0xFFFFFFFFFFFFFFFFFFFFFFFFFFFFFFFFFFFFFFFF AND DUP5 PUSH20 0xFFFFFFFFFFFFFFFFFFFFFFFFFFFFFFFFFFFFFFFF AND SUB PUSH2 0x223 JUMPI PUSH1 0x40 MLOAD PUSH32 0x8C379A000000000000000000000000000000000000000000000000000000000 DUP2 MSTORE PUSH1 0x4 ADD PUSH2 0x21A SWAP1 PUSH2 0x75E JUMP JUMPDEST PUSH1 0x40 MLOAD DUP1 SWAP2 SUB SWAP1 REVERT JUMPDEST PUSH0 DUP4 DUP4 SWAP1 POP GT PUSH2 0x268 JUMPI PUSH1 0x40 MLOAD PUSH32 0x8C379A000000000000000000000000000000000000000000000000000000000 DUP2 MSTORE PUSH1 0x4 ADD PUSH2 0x25F SWAP1 PUSH2 0x7C6 JUMP JUMPDEST PUSH1 0x40 MLOAD DUP1 SWAP2 SUB SWAP1 REVERT JUMPDEST PUSH0 PUSH0 DUP2 SLOAD DUP1 SWAP3 SWAP2 SWAP1 PUSH2 0x279 SWAP1 PUSH2 0x811 JUMP JUMPDEST SWAP2 SWAP1 POP SSTORE POP PUSH1 0x40 MLOAD DUP1 PUSH1 0x80 ADD PUSH1 0x40 MSTORE DUP1 CALLER PUSH20 0xFFFFFFFFFFFFFFFFFFFFFFFFFFFFFFFFFFFFFFFF AND DUP2 MSTORE PUSH1 0x20 ADD DUP6 PUSH20 0xFFFFFFFFFFFFFFFFFFFFFFFFFFFFFFFFFFFFFFFF AND DUP2 MSTORE PUSH1 0x20 ADD DUP5 DUP5 DUP1 DUP1 PUSH1 0x1F ADD PUSH1 0x20 DUP1 SWAP2 DIV MUL PUSH1 0x20 ADD PUSH1 0x40 MLOAD SWAP1 DUP2 ADD PUSH1 0x40 MSTORE DUP1 SWAP4 SWAP3 SWAP2 SWAP1 DUP2 DUP2 MSTORE PUSH1 0x20 ADD DUP4 DUP4 DUP1 DUP3 DUP5 CALLDATACOPY PUSH0 DUP2 DUP5 ADD MSTORE PUSH1 0x1F NOT PUSH1 0x1F DUP3 ADD AND SWAP1 POP DUP1 DUP4 ADD SWAP3 POP POP POP POP POP POP POP DUP2 MSTORE PUSH1 0x20 ADD TIMESTAMP DUP2 MSTORE POP PUSH1 0x1 PUSH0 PUSH0 SLOAD DUP2 MSTORE PUSH1 0x20 ADD SWAP1 DUP2 MSTORE PUSH1 0x20 ADD PUSH0 KECCAK256 PUSH0 DUP3 ADD MLOAD DUP2 PUSH0 ADD PUSH0 PUSH2 0x100 EXP DUP2 SLOAD DUP2 PUSH20 0xFFFFFFFFFFFFFFFFFFFFFFFFFFFFFFFFFFFFFFFF MUL NOT AND SWAP1 DUP4 PUSH20 0xFFFFFFFFFFFFFFFFFFFFFFFFFFFFFFFFFFFFFFFF AND MUL OR SWAP1 SSTORE POP PUSH1 0x20 DUP3 ADD MLOAD DUP2 PUSH1 0x1 ADD PUSH0 PUSH2 0x100 EXP DUP2 SLOAD DUP2 PUSH20 0xFFFFFFFFFFFFFFFFFFFFFFFFFFFFFFFFFFFFFFFF MUL NOT AND SWAP1 DUP4 PUSH20 0xFFFFFFFFFFFFFFFFFFFFFFFFFFFFFFFFFFFFFFFF AND MUL OR SWAP1 SSTORE POP PUSH1 0x40 DUP3 ADD MLOAD DUP2 PUSH1 0x2 ADD SWAP1 DUP2 PUSH2 0x3BF SWAP2 SWAP1 PUSH2 0xA25 JUMP JUMPDEST POP PUSH1 0x60 DUP3 ADD MLOAD DUP2 PUSH1 0x3 ADD SSTORE SWAP1 POP POP DUP4 PUSH20 0xFFFFFFFFFFFFFFFFFFFFFFFFFFFFFFFFFFFFFFFF AND CALLER PUSH20 0xFFFFFFFFFFFFFFFFFFFFFFFFFFFFFFFFFFFFFFFF AND PUSH0 SLOAD PUSH32 0xF677E82FAC9D852BC5FC4E5F1C53E0D88E4C55767AF3A60DCB0E1ACCB716EA6B DUP7 DUP7 TIMESTAMP PUSH1 0x40 MLOAD PUSH2 0x430 SWAP4 SWAP3 SWAP2 SWAP1 PUSH2 0xB2E JUMP JUMPDEST PUSH1 0x40 MLOAD DUP1 SWAP2 SUB SWAP1 LOG4 PUSH0 SLOAD SWAP1 POP SWAP4 SWAP3 POP POP POP JUMP JUMPDEST PUSH0 SLOAD DUP2 JUMP JUMPDEST PUSH0 PUSH0 REVERT JUMPDEST PUSH0 PUSH0 REVERT JUMPDEST PUSH0 DUP2 SWAP1 POP SWAP2 SWAP1 POP JUMP JUMPDEST PUSH2 0x462 DUP2 PUSH2 0x450 JUMP JUMPDEST DUP2 EQ PUSH2 0x46C JUMPI PUSH0 PUSH0 REVERT JUMPDEST POP JUMP JUMPDEST PUSH0 DUP2 CALLDATALOAD SWAP1 POP PUSH2 0x47D DUP2 PUSH2 0x459 JUMP JUMPDEST SWAP3 SWAP2 POP POP JUMP JUMPDEST PUSH0 PUSH1 0x20 DUP3 DUP5 SUB SLT ISZERO PUSH2 0x498 JUMPI PUSH2 0x497 PUSH2 0x448 JUMP JUMPDEST JUMPDEST PUSH0 PUSH2 0x4A5 DUP5 DUP3 DUP6 ADD PUSH2 0x46F JUMP JUMPDEST SWAP2 POP POP SWAP3 SWAP2 POP POP JUMP JUMPDEST PUSH0 PUSH20 0xFFFFFFFFFFFFFFFFFFFFFFFFFFFFFFFFFFFFFFFF DUP3 AND SWAP1 POP SWAP2 SWAP1 POP JUMP JUMPDEST PUSH0 PUSH2 0x4D7 DUP3 PUSH2 0x4AE JUMP JUMPDEST SWAP1 POP SWAP2 SWAP1 POP JUMP JUMPDEST PUSH2 0x4E7 DUP2 PUSH2 0x4CD JUMP JUMPDEST DUP3 MSTORE POP POP JUMP JUMPDEST PUSH0 DUP2 MLOAD SWAP1 POP SWAP2 SWAP1 POP JUMP JUMPDEST PUSH0 DUP3 DUP3 MSTORE PUSH1 0x20 DUP3 ADD SWAP1 POP SWAP3 SWAP2 POP POP JUMP JUMPDEST DUP3 DUP2 DUP4 MCOPY PUSH0 DUP4 DUP4 ADD MSTORE POP POP POP JUMP JUMPDEST PUSH0 PUSH1 0x1F NOT PUSH1 0x1F DUP4 ADD AND SWAP1 POP SWAP2 SWAP1 POP JUMP JUMPDEST PUSH0 PUSH2 0x52F DUP3 PUSH2 0x4ED JUMP JUMPDEST PUSH2 0x539 DUP2 DUP6 PUSH2 0x4F7 JUMP JUMPDEST SWAP4 POP PUSH2 0x549 DUP2 DUP6 PUSH1 0x20 DUP7 ADD PUSH2 0x507 JUMP JUMPDEST PUSH2 0x552 DUP2 PUSH2 0x515 JUMP JUMPDEST DUP5 ADD SWAP2 POP POP SWAP3 SWAP2 POP POP JUMP JUMPDEST PUSH2 0x566 DUP2 PUSH2 0x450 JUMP JUMPDEST DUP3 MSTORE POP POP JUMP JUMPDEST PUSH0 PUSH1 0x80 DUP3 ADD SWAP1 POP PUSH2 0x57F PUSH0 DUP4 ADD DUP8 PUSH2 0x4DE JUMP JUMPDEST PUSH2 0x58C PUSH1 0x20 DUP4 ADD DUP7 PUSH2 0x4DE JUMP JUMPDEST DUP2 DUP2 SUB PUSH1 0x40 DUP4 ADD MSTORE PUSH2 0x59E DUP2 DUP6 PUSH2 0x525 JUMP JUMPDEST SWAP1 POP PUSH2 0x5AD PUSH1 0x60 DUP4 ADD DUP5 PUSH2 0x55D JUMP JUMPDEST SWAP6 SWAP5 POP POP POP POP POP JUMP JUMPDEST PUSH2 0x5BF DUP2 PUSH2 0x4CD JUMP JUMPDEST DUP2 EQ PUSH2 0x5C9 JUMPI PUSH0 PUSH0 REVERT JUMPDEST POP JUMP JUMPDEST PUSH0 DUP2 CALLDATALOAD SWAP1 POP PUSH2 0x5DA DUP2 PUSH2 0x5B6 JUMP JUMPDEST SWAP3 SWAP2 POP POP JUMP JUMPDEST PUSH0 PUSH0 REVERT JUMPDEST PUSH0 PUSH0 REVERT JUMPDEST PUSH0 PUSH0 REVERT JUMPDEST PUSH0 PUSH0 DUP4 PUSH1 0x1F DUP5 ADD SLT PUSH2 0x601 JUMPI PUSH2 0x600 PUSH2 0x5E0 JUMP JUMPDEST JUMPDEST DUP3 CALLDATALOAD SWAP1 POP PUSH8 0xFFFFFFFFFFFFFFFF DUP2 GT ISZERO PUSH2 0x61E JUMPI PUSH2 0x61D PUSH2 0x5E4 JUMP JUMPDEST JUMPDEST PUSH1 0x20 DUP4 ADD SWAP2 POP DUP4 PUSH1 0x1 DUP3 MUL DUP4 ADD GT ISZERO PUSH2 0x63A JUMPI PUSH2 0x639 PUSH2 0x5E8 JUMP JUMPDEST JUMPDEST SWAP3 POP SWAP3 SWAP1 POP JUMP JUMPDEST PUSH0 PUSH0 PUSH0 PUSH1 0x40 DUP5 DUP7 SUB SLT ISZERO PUSH2 0x658 JUMPI PUSH2 0x657 PUSH2 0x448 JUMP JUMPDEST JUMPDEST PUSH0 PUSH2 0x665 DUP7 DUP3 DUP8 ADD PUSH2 0x5CC JUMP JUMPDEST SWAP4 POP POP PUSH1 0x20 DUP5 ADD CALLDATALOAD PUSH8 0xFFFFFFFFFFFFFFFF DUP2 GT ISZERO PUSH2 0x686 JUMPI PUSH2 0x685 PUSH2 0x44C JUMP JUMPDEST JUMPDEST PUSH2 0x692 DUP7 DUP3 DUP8 ADD PUSH2 0x5EC JUMP JUMPDEST SWAP3 POP SWAP3 POP POP SWAP3 POP SWAP3 POP SWAP3 JUMP JUMPDEST PUSH0 PUSH1 0x20 DUP3 ADD SWAP1 POP PUSH2 0x6B1 PUSH0 DUP4 ADD DUP5 PUSH2 0x55D JUMP JUMPDEST SWAP3 SWAP2 POP POP JUMP JUMPDEST PUSH32 0x4E487B7100000000000000000000000000000000000000000000000000000000 PUSH0 MSTORE PUSH1 0x22 PUSH1 0x4 MSTORE PUSH1 0x24 PUSH0 REVERT JUMPDEST PUSH0 PUSH1 0x2 DUP3 DIV SWAP1 POP PUSH1 0x1 DUP3 AND DUP1 PUSH2 0x6FB JUMPI PUSH1 0x7F DUP3 AND SWAP2 POP JUMPDEST PUSH1 0x20 DUP3 LT DUP2 SUB PUSH2 0x70E JUMPI PUSH2 0x70D PUSH2 0x6B7 JUMP JUMPDEST JUMPDEST POP SWAP2 SWAP1 POP JUMP JUMPDEST PUSH32 0x496E76616C696420726563697069656E74206164647265737300000000000000 PUSH0 DUP3 ADD MSTORE POP JUMP JUMPDEST PUSH0 PUSH2 0x748 PUSH1 0x19 DUP4 PUSH2 0x4F7 JUMP JUMPDEST SWAP2 POP PUSH2 0x753 DUP3 PUSH2 0x714 JUMP JUMPDEST PUSH1 0x20 DUP3 ADD SWAP1 POP SWAP2 SWAP1 POP JUMP JUMPDEST PUSH0 PUSH1 0x20 DUP3 ADD SWAP1 POP DUP2 DUP2 SUB PUSH0 DUP4 ADD MSTORE PUSH2 0x775 DUP2 PUSH2 0x73C JUMP JUMPDEST SWAP1 POP SWAP2 SWAP1 POP JUMP JUMPDEST PUSH32 0x4950465320686173682072657175697265640000000000000000000000000000 PUSH0 DUP3 ADD MSTORE POP JUMP JUMPDEST PUSH0 PUSH2 0x7B0 PUSH1 0x12 DUP4 PUSH2 0x4F7 JUMP JUMPDEST SWAP2 POP PUSH2 0x7BB DUP3 PUSH2 0x77C JUMP JUMPDEST PUSH1 0x20 DUP3 ADD SWAP1 POP SWAP2 SWAP1 POP JUMP JUMPDEST PUSH0 PUSH1 0x20 DUP3 ADD SWAP1 POP DUP2 DUP2 SUB PUSH0 DUP4 ADD MSTORE PUSH2 0x7DD DUP2 PUSH2 0x7A4 JUMP JUMPDEST SWAP1 POP SWAP2 SWAP1 POP JUMP JUMPDEST PUSH32 0x4E487B7100000000000000000000000000000000000000000000000000000000 PUSH0 MSTORE PUSH1 0x11 PUSH1 0x4 MSTORE PUSH1 0x24 PUSH0 REVERT JUMPDEST PUSH0 PUSH2 0x81B DUP3 PUSH2 0x450 JUMP JUMPDEST SWAP2 POP PUSH32 0xFFFFFFFFFFFFFFFFFFFFFFFFFFFFFFFFFFFFFFFFFFFFFFFFFFFFFFFFFFFFFFFF DUP3 SUB PUSH2 0x84D JUMPI PUSH2 0x84C PUSH2 0x7E4 JUMP JUMPDEST JUMPDEST PUSH1 0x1 DUP3 ADD SWAP1 POP SWAP2 SWAP1 POP JUMP JUMPDEST PUSH32 0x4E487B7100000000000000000000000000000000000000000000000000000000 PUSH0 MSTORE PUSH1 0x41 PUSH1 0x4 MSTORE PUSH1 0x24 PUSH0 REVERT JUMPDEST PUSH0 DUP2 SWAP1 POP DUP2 PUSH0 MSTORE PUSH1 0x20 PUSH0 KECCAK256 SWAP1 POP SWAP2 SWAP1 POP JUMP JUMPDEST PUSH0 PUSH1 0x20 PUSH1 0x1F DUP4 ADD DIV SWAP1 POP SWAP2 SWAP1 POP JUMP JUMPDEST PUSH0 DUP3 DUP3 SHL SWAP1 POP SWAP3 SWAP2 POP POP JUMP JUMPDEST PUSH0 PUSH1 0x8 DUP4 MUL PUSH2 0x8E1 PUSH32 0xFFFFFFFFFFFFFFFFFFFFFFFFFFFFFFFFFFFFFFFFFFFFFFFFFFFFFFFFFFFFFFFF DUP3 PUSH2 0x8A6 JUMP JUMPDEST PUSH2 0x8EB DUP7 DUP4 PUSH2 0x8A6 JUMP JUMPDEST SWAP6 POP DUP1 NOT DUP5 AND SWAP4 POP DUP1 DUP7 AND DUP5 OR SWAP3 POP POP POP SWAP4 SWAP3 POP POP POP JUMP JUMPDEST PUSH0 DUP2 SWAP1 POP SWAP2 SWAP1 POP JUMP JUMPDEST PUSH0 PUSH2 0x926 PUSH2 0x921 PUSH2 0x91C DUP5 PUSH2 0x450 JUMP JUMPDEST PUSH2 0x903 JUMP JUMPDEST PUSH2 0x450 JUMP JUMPDEST SWAP1 POP SWAP2 SWAP1 POP JUMP JUMPDEST PUSH0 DUP2 SWAP1 POP SWAP2 SWAP1 POP JUMP JUMPDEST PUSH2 0x93F DUP4 PUSH2 0x90C JUMP JUMPDEST PUSH2 0x953 PUSH2 0x94B DUP3 PUSH2 0x92D JUMP JUMPDEST DUP5 DUP5 SLOAD PUSH2 0x8B2 JUMP JUMPDEST DUP3 SSTORE POP POP POP POP JUMP JUMPDEST PUSH0 PUSH0 SWAP1 POP SWAP1 JUMP JUMPDEST PUSH2 0x96A PUSH2 0x95B JUMP JUMPDEST PUSH2 0x975 DUP2 DUP5 DUP5 PUSH2 0x936 JUMP JUMPDEST POP POP POP JUMP JUMPDEST JUMPDEST DUP2 DUP2 LT ISZERO PUSH2 0x998 JUMPI PUSH2 0x98D PUSH0 DUP3 PUSH2 0x962 JUMP JUMPDEST PUSH1 0x1 DUP2 ADD SWAP1 POP PUSH2 0x97B JUMP JUMPDEST POP POP JUMP JUMPDEST PUSH1 0x1F DUP3 GT ISZERO PUSH2 0x9DD JUMPI PUSH2 0x9AE DUP2 PUSH2 0x885 JUMP JUMPDEST PUSH2 0x9B7 DUP5 PUSH2 0x897 JUMP JUMPDEST DUP2 ADD PUSH1 0x20 DUP6 LT ISZERO PUSH2 0x9C6 JUMPI DUP2 SWAP1 POP JUMPDEST PUSH2 0x9DA PUSH2 0x9D2 DUP6 PUSH2 0x897 JUMP JUMPDEST DUP4 ADD DUP3 PUSH2 0x97A JUMP JUMPDEST POP POP JUMPDEST POP POP POP JUMP JUMPDEST PUSH0 DUP3 DUP3 SHR SWAP1 POP SWAP3 SWAP2 POP POP JUMP JUMPDEST PUSH0 PUSH2 0x9FD PUSH0 NOT DUP5 PUSH1 0x8 MUL PUSH2 0x9E2 JUMP JUMPDEST NOT DUP1 DUP4 AND SWAP2 POP POP SWAP3 SWAP2 POP POP JUMP JUMPDEST PUSH0 PUSH2 0xA15 DUP4 DUP4 PUSH2 0x9EE JUMP JUMPDEST SWAP2 POP DUP3 PUSH1 0x2 MUL DUP3 OR SWAP1 POP SWAP3 SWAP2 POP POP JUMP JUMPDEST PUSH2 0xA2E DUP3 PUSH2 0x4ED JUMP JUMPDEST PUSH8 0xFFFFFFFFFFFFFFFF DUP2 GT ISZERO PUSH2 0xA47 JUMPI PUSH2 0xA46 PUSH2 0x858 JUMP JUMPDEST JUMPDEST PUSH2 0xA51 DUP3 SLOAD PUSH2 0x6E4 JUMP JUMPDEST PUSH2 0xA5C DUP3 DUP3 DUP6 PUSH2 0x99C JUMP JUMPDEST PUSH0 PUSH1 0x20 SWAP1 POP PUSH1 0x1F DUP4 GT PUSH1 0x1 DUP2 EQ PUSH2 0xA8D JUMPI PUSH0 DUP5 ISZERO PUSH2 0xA7B JUMPI DUP3 DUP8 ADD MLOAD SWAP1 POP JUMPDEST PUSH2 0xA85 DUP6 DUP3 PUSH2 0xA0A JUMP JUMPDEST DUP7 SSTORE POP PUSH2 0xAEC JUMP JUMPDEST PUSH1 0x1F NOT DUP5 AND PUSH2 0xA9B DUP7 PUSH2 0x885 JUMP JUMPDEST PUSH0 JUMPDEST DUP3 DUP2 LT ISZERO PUSH2 0xAC2 JUMPI DUP5 DUP10 ADD MLOAD DUP3 SSTORE PUSH1 0x1 DUP3 ADD SWAP2 POP PUSH1 0x20 DUP6 ADD SWAP5 POP PUSH1 0x20 DUP2 ADD SWAP1 POP PUSH2 0xA9D JUMP JUMPDEST DUP7 DUP4 LT ISZERO PUSH2 0xADF JUMPI DUP5 DUP10 ADD MLOAD PUSH2 0xADB PUSH1 0x1F DUP10 AND DUP3 PUSH2 0x9EE JUMP JUMPDEST DUP4 SSTORE POP JUMPDEST PUSH1 0x1 PUSH1 0x2 DUP9 MUL ADD DUP9 SSTORE POP POP POP JUMPDEST POP POP POP POP POP POP JUMP JUMPDEST DUP3 DUP2 DUP4 CALLDATACOPY PUSH0 DUP4 DUP4 ADD MSTORE POP POP POP JUMP JUMPDEST PUSH0 PUSH2 0xB0D DUP4 DUP6 PUSH2 0x4F7 JUMP JUMPDEST SWAP4 POP PUSH2 0xB1A DUP4 DUP6 DUP5 PUSH2 0xAF4 JUMP JUMPDEST PUSH2 0xB23 DUP4 PUSH2 0x515 JUMP JUMPDEST DUP5 ADD SWAP1 POP SWAP4 SWAP3 POP POP POP JUMP JUMPDEST PUSH0 PUSH1 0x40 DUP3 ADD SWAP1 POP DUP2 DUP2 SUB PUSH0 DUP4 ADD MSTORE PUSH2 0xB47 DUP2 DUP6 DUP8 PUSH2 0xB02 JUMP JUMPDEST SWAP1 POP PUSH2 0xB56 PUSH1 0x20 DUP4 ADD DUP5 PUSH2 0x55D JUMP JUMPDEST SWAP5 SWAP4 POP POP POP POP JUMP INVALID LOG2 PUSH5 0x6970667358 0x22 SLT KECCAK256 SWAP3 MOD ADD SWAP11 PUSH32 0xAD98F8B1BBBC3FA6DBF93EE4CCF36EA96635527FA1F1AE9A63009164736F6C63 NUMBER STOP ADDMOD SHR STOP CALLER "},"methodIdentifiers":{"certCount()":"d4e207a2","certificates(uint256)":"663b3e22","issueCertificate(address,string)":"bb721aab"}}}}}