{
  "_format": "hh3-artifact-1",
  "contractName": "Certificate",
  "sourceName": "contracts/Certificate.sol",
  "abi": [
    {
      "anonymous": false,
      "inputs": [
        {
          "indexed": true,
          "internalType": "uint256",
          "name": "certId",
          "type": "uint256"
        },
        {
          "indexed": true,
          "internalType": "address",
          "name": "issuer",
          "type": "address"
        },
        {
          "indexed": true,
          "internalType": "address",
          "name": "recipient",
          "type": "address"
        },
        {
          "indexed": false,
          "internalType": "string",
          "name": "ipfsHash",
          "type": "string"
        },
        {
          "indexed": false,
          "internalType": "uint256",
          "name": "issuedAt",
          "type": "uint256"
        }
      ],
      "name": "CertificateIssued",
      "type": "event"
    },
    {
      "inputs": [],
      "name": "certCount",
      "outputs": [
        {
          "internalType": "uint256",
          "name": "",
          "type": "uint256"
        }
      ],
      "stateMutability": "view",
      "type": "function"
    },
    {
      "inputs": [
        {
          "internalType": "uint256",
          "name": "",
          "type": "uint256"
        }
      ],
      "name": "certificates",
      "outputs": [
        {
          "internalType": "address",
          "name": "issuer",
          "type": "address"
        },
        {
          "internalType": "address",
          "name": "recipient",
          "type": "address"
        },
        {
          "internalType": "string",
          "name": "ipfsHash",
          "type": "string"
        },
        {
          "internalType": "uint256",
          "name": "issuedAt",
          "type": "uint256"
        }
      ],
      "stateMutability": "view",
      "type": "function"
    },
    {
      "inputs": [
        {
          "internalType": "address",
          "name": "recipient",
          "type": "address"
        },
        {
          "internalType": "string",
          "name": "ipfsHash",
          "type": "string"
        }
      ],
      "name": "issueCertificate",
      "outputs": [
        {
          "internalType": "uint256",
          "name": "",
          "type": "uint256"
        }
      ],
      "stateMutability": "nonpayable",
      "type": "function"
    }
  ],
  "bytecode": "0x6080604052348015600e575f5ffd5b50610b948061001c5f395ff3fe608060405234801561000f575f5ffd5b506004361061003f575f3560e01c8063663b3e2214610043578063bb721aab14610076578063d4e207a2146100a6575b5f5ffd5b61005d60048036038101906100589190610483565b6100c4565b60405161006d949392919061056c565b60405180910390f35b610090600480360381019061008b9190610641565b6101b4565b60405161009d919061069e565b60405180910390f35b6100ae610443565b6040516100bb919061069e565b60405180910390f35b6001602052805f5260405f205f91509050805f015f9054906101000a900473ffffffffffffffffffffffffffffffffffffffff1690806001015f9054906101000a900473ffffffffffffffffffffffffffffffffffffffff169080600201805461012d906106e4565b80601f0160208091040260200160405190810160405280929190818152602001828054610159906106e4565b80156101a45780601f1061017b576101008083540402835291602001916101a4565b820191905f5260205f20905b81548152906001019060200180831161018757829003601f168201915b5050505050908060030154905084565b5f5f73ffffffffffffffffffffffffffffffffffffffff168473ffffffffffffffffffffffffffffffffffffffff1603610223576040517f08c379a000000000000000000000000000000000000000000000000000000000815260040161021a9061075e565b60405180910390fd5b5f8383905011610268576040517f08c379a000000000000000000000000000000000000000000000000000000000815260040161025f906107c6565b60405180910390fd5b5f5f81548092919061027990610811565b919050555060405180608001604052803373ffffffffffffffffffffffffffffffffffffffff1681526020018573ffffffffffffffffffffffffffffffffffffffff16815260200184848080601f0160208091040260200160405190810160405280939291908181526020018383808284375f81840152601f19601f8201169050808301925050505050505081526020014281525060015f5f5481526020019081526020015f205f820151815f015f6101000a81548173ffffffffffffffffffffffffffffffffffffffff021916908373ffffffffffffffffffffffffffffffffffffffff1602179055506020820151816001015f6101000a81548173ffffffffffffffffffffffffffffffffffffffff021916908373ffffffffffffffffffffffffffffffffffffffff16021790555060408201518160020190816103bf9190610a25565b50606082015181600301559050508373ffffffffffffffffffffffffffffffffffffffff163373ffffffffffffffffffffffffffffffffffffffff165f547ff677e82fac9d852bc5fc4e5f1c53e0d88e4c55767af3a60dcb0e1accb716ea6b86864260405161043093929190610b2e565b60405180910390a45f5490509392505050565b5f5481565b5f5ffd5b5f5ffd5b5f819050919050565b61046281610450565b811461046c575f5ffd5b50565b5f8135905061047d81610459565b92915050565b5f6020828403121561049857610497610448565b5b5f6104a58482850161046f565b91505092915050565b5f73ffffffffffffffffffffffffffffffffffffffff82169050919050565b5f6104d7826104ae565b9050919050565b6104e7816104cd565b82525050565b5f81519050919050565b5f82825260208201905092915050565b8281835e5f83830152505050565b5f601f19601f8301169050919050565b5f61052f826104ed565b61053981856104f7565b9350610549818560208601610507565b61055281610515565b840191505092915050565b61056681610450565b82525050565b5f60808201905061057f5f8301876104de565b61058c60208301866104de565b818103604083015261059e8185610525565b90506105ad606083018461055d565b95945050505050565b6105bf816104cd565b81146105c9575f5ffd5b50565b5f813590506105da816105b6565b92915050565b5f5ffd5b5f5ffd5b5f5ffd5b5f5f83601f840112610601576106006105e0565b5b8235905067ffffffffffffffff81111561061e5761061d6105e4565b5b60208301915083600182028301111561063a576106396105e8565b5b9250929050565b5f5f5f6040848603121561065857610657610448565b5b5f610665868287016105cc565b935050602084013567ffffffffffffffff8111156106865761068561044c565b5b610692868287016105ec565b92509250509250925092565b5f6020820190506106b15f83018461055d565b92915050565b7f4e487b71000000000000000000000000000000000000000000000000000000005f52602260045260245ffd5b5f60028204905060018216806106fb57607f821691505b60208210810361070e5761070d6106b7565b5b50919050565b7f496e76616c696420726563697069656e742061646472657373000000000000005f82015250565b5f6107486019836104f7565b915061075382610714565b602082019050919050565b5f6020820190508181035f8301526107758161073c565b9050919050565b7f49504653206861736820726571756972656400000000000000000000000000005f82015250565b5f6107b06012836104f7565b91506107bb8261077c565b602082019050919050565b5f6020820190508181035f8301526107dd816107a4565b9050919050565b7f4e487b71000000000000000000000000000000000000000000000000000000005f52601160045260245ffd5b5f61081b82610450565b91507fffffffffffffffffffffffffffffffffffffffffffffffffffffffffffffffff820361084d5761084c6107e4565b5b600182019050919050565b7f4e487b71000000000000000000000000000000000000000000000000000000005f52604160045260245ffd5b5f819050815f5260205f209050919050565b5f6020601f8301049050919050565b5f82821b905092915050565b5f600883026108e17fffffffffffffffffffffffffffffffffffffffffffffffffffffffffffffffff826108a6565b6108eb86836108a6565b95508019841693508086168417925050509392505050565b5f819050919050565b5f61092661092161091c84610450565b610903565b610450565b9050919050565b5f819050919050565b61093f8361090c565b61095361094b8261092d565b8484546108b2565b825550505050565b5f5f905090565b61096a61095b565b610975818484610936565b505050565b5b818110156109985761098d5f82610962565b60018101905061097b565b5050565b601f8211156109dd576109ae81610885565b6109b784610897565b810160208510156109c6578190505b6109da6109d285610897565b83018261097a565b50505b505050565b5f82821c905092915050565b5f6109fd5f19846008026109e2565b1980831691505092915050565b5f610a1583836109ee565b9150826002028217905092915050565b610a2e826104ed565b67ffffffffffffffff811115610a4757610a46610858565b5b610a5182546106e4565b610a5c82828561099c565b5f60209050601f831160018114610a8d575f8415610a7b578287015190505b610a858582610a0a565b865550610aec565b601f198416610a9b86610885565b5f5b82811015610ac257848901518255600182019150602085019450602081019050610a9d565b86831015610adf5784890151610adb601f8916826109ee565b8355505b6001600288020188555050505b505050505050565b828183375f83830152505050565b5f610b0d83856104f7565b9350610b1a838584610af4565b610b2383610515565b840190509392505050565b5f6040820190508181035f830152610b47818587610b02565b9050610b56602083018461055d565b94935050505056fea26469706673582212209206019a7fad98f8b1bbbc3fa6dbf93ee4ccf36ea96635527fa1f1ae9a63009164736f6c634300081c0033",
  "linkReferences": {},
  "deployedLinkReferences": {},
  "immutableReferences": {},
  "inputSourceName": "project/contracts/Certificate.sol",
  "buildInfoId": "solc-0_8_28-94929da0a6913a9b67254e1428d56557edb23fb8"
}